:020000040800F2
:10000000482400202102000845120008731000084F
:10001000B9110008EB0400081D18000800000000DA
:10002000000000000000000000000000890100083E
:10003000FB04000800000000CD0100081D170008A7
:100040003B0200083B0200083B0200083B0200089C
:100050003B0200083B0200083B0200083B0200088C
:100060003B0200083B0200083B0200083B0200087C
:100070003B0200083B0200083B0200083B0200086C
:100080003B0200083B0200083B0200083B0200085C
:100090003B0200083B0200083B020008050500087F
:1000A0003B0200083B0200083B0200083B0200083C
:1000B0003B0200083B020008991700083B020008B9
:1000C0003B0200083B0200083B0200083B0200081C
:1000D0003B0200083B0200083B0200083B0200080C
:1000E000FD0400083B0200083B02000800F002F893
:1000F00000F03AF80AA090E8000C82448344AAF188
:100100000107DA4501D100F02FF8AFF2090EBAE885
:100110000F0013F0010F18BFFB1A43F0010318473B
:10012000E4390000043A0000103A24BF78C878C1CE
:10013000FAD8520724BF30C830C144BF04680C60ED
:10014000704700000023002400250026103A28BF35
:1001500078C1FBD8520728BF30C148BF0B60704739
:100160001FB51FBD10B510BD00F08AF91146FFF78D
:10017000F7FF01F064FB00F0A8F903B4FFF7F2FF0A
:1001800003BC00F0ABF90000224B19680868B0E826
:10019000F00F80F30988BFF36F8F4FF0000080F3FA
:1001A00011884EF00D0E70470000000006480068F0
:1001B000006880F3088862B661B6BFF34F8FBFF363
:1001C0006F8F00DF00BF00BF08ED00E0EFF3098094
:1001D000BFF36F8F0F4B1A6820E9F00F106008B55E
:1001E0004FF0500080F31188BFF34F8FBFF36F8F34
:1001F00002F08EFA4FF0000080F31188BDE808404D
:1002000019680868B0E8F00F80F30988BFF36F8FB2
:10021000704700BF34000020EFF3058070470000F6
:100220000948804709480047FEE7FEE7FEE7FEE78A
:10023000FEE7FEE7FEE7FEE7FEE7FEE704480549C6
:10024000054A064B7047000095170008ED000008AE
:10025000481E00204824002048200020482000207C
:10026000032A40F2308010F0030C00F0158011F8E2
:10027000013BBCF1020F624498BF11F801CB00F8BA
:10028000013B38BF11F8013BA2F1040298BF00F80E
:1002900001CB38BF00F8013B11F0030300F0978059
:1002A000083AC0F0088051F8043B083A51F804CBF2
:1002B000A0E80810F5E7121D5CBF51F8043B40F8B8
:1002C000043BAFF30080D20724BF11F8013B11F8C3
:1002D00001CB48BF11F8012B24BF00F8013B00F807
:1002E00001CB48BF00F8012B704702F0FF0343EA3F
:1002F000032242EA024200F09EB84FF0000200B52D
:10030000134694469646203922BFA0E80C50A0E838
:100310000C50B1F12001BFF4F7AF090728BFA0E8E6
:100320000C5048BF0CC05DF804EB890028BF40F8B2
:10033000042B08BF704748BF20F8022B11F0804FF4
:1003400018BF00F8012B70474FF0013C50F8042B08
:1003500051F8043B9A4221D1A2EB0C03934313EAD8
:10036000CC1317D150F8042B51F8043B9A4215D105
:10037000A2EB0C03934313EACC130BD150F8042BDC
:1003800051F8043B9A4209D1A2EB0C03934313EAC0
:10039000CC13DBD04FF00000704700BFD01A01BA79
:1003A000B1FA81F101F0180122FA01F0CB40C1F15C
:1003B0002001DBB2C0B2C01A2CFA01F3D11A91436A
:1003C00011EAC311E6D1704770477047704710B506
:1003D000203AC0F00B80B1E81850203AA0E818503D
:1003E000B1E81850A0E81850BFF4F5AF5FEA027CFE
:1003F00024BFB1E81850A0E8185044BF18C918C06D
:10040000BDE810405FEA827C24BF51F8043B40F80D
:10041000043B08BF7047D20728BF31F8023B48BFF2
:1004200011F8012B28BF20F8023B48BF00F8012B30
:1004300070474FF000020429C0F0128010F0030C46
:100440003FF45DAFCCF1040CBCF1020F18BF00F813
:10045000012BA8BF20F8022BA1EB0C01FFF74FBF27
:100460005FEAC17C24BF00F8012B00F8012B48BFD4
:1004700000F8012B7047000000487047E81D00207D
:100480007546FFF7F9FFAE4605006946534620F072
:100490000700854618B020B5FFF7D0FEBDE8204024
:1004A0004FF000064FF000074FF000084FF0000B30
:1004B00021F00701AC46ACE8C009ACE8C009ACE8E3
:1004C000C009ACE8C0098D46704710B50446AFF3CB
:1004D00000802046BDE81040FFF74FBE01491820BC
:1004E000ABBEFEE7260002007047FEE70021801E3B
:1004F000022800D8C1B20846704770474FF48050B8
:1005000000F062B87CB500F065F904460020009068
:10051000134D01208DF8040028784FF4807688B1BF
:100520006868201AC8280DD331460E4800F048F9F3
:1005300040B90D48006820B100236A4601A902F0C5
:10054000CBFA6C60304600F03FF80098012806D1E5
:10055000064900070860BFF34F8FBFF36F8F7CBD64
:100560001C00002000080140C800002004ED00E04D
:100570000E4A10B500211170052815D2DFE800F0F1
:10058000030507090B000A4806E00A4804E00A4888
:1005900002E00A4800E00A48006801F0E1FFBDE817
:1005A0001040002002F05EB810BD00001C000020CA
:1005B000080000200C000020100000201400002083
:1005C0001800002070470000044910B50A68024274
:1005D00002D00860FFF7F6FF10BD000014040140D0
:1005E0002DE9F84FDFF8B8910024A9F1040B234658
:1005F0000F2709F1040AABF1040EC9E00125A5405B
:100600002A40AA427DD1674ED1F804C0ACEB06085F
:10061000B44532D014DCBCF1030F3AD009DCBCF194
:10062000000F2AD0BCF1010F1CD0BCF1020F31D158
:100630001DE0BCF1110F17D0BCF1120F2AD119E047
:10064000B8F5881F19D006DCB8F5803F15D0B8F58D
:10065000801F1FD111E0B8F5001F0ED0B8F5041FA0
:1006600018D10AE0CB6815E0CB681B1D12E0CB68FF
:1006700008330FE0CB680C330CE08B682BB1012BF7
:100680004FF0080303D0456104E0042302E0056154
:1006900000E00023FF2A01D8064601E000F104062D
:1006A0004FEA840501D9A5F12005D6F8008007FAA4
:1006B00005FC28EA0C0803FA05F548EA0508C6F81F
:1006C00000804D68ED0062D5374DAE6946F00106F9
:1006D000AE61AD6924F0030605F001050095334DC8
:1006E00006EB050CDCF80850A607360F07FA06F8EB
:1006F00025EA0805DFF8B880404503D14FF000082F
:1007000017E044E0DFF8AC80404502D14FF001082B
:100710000FE0DFF8A480404502D14FF0020808E066
:10072000DFF89880404502D14FF0030801E04FF018
:10073000040808FA06F848EA0508CCF808804D686D
:10074000D9F80060ED024D4601D5164300E096430E
:100750002E604D68DAF80060AD02554601D51643AB
:1007600000E096432E604D68DBF80060AD035D4607
:1007700001D5164300E096432E604D68DEF8006018
:10078000ED03754601D5164300E096432E60641CC8
:100790000D682A46E5407FF431AFBDE8F88F0000D0
:1007A0000804014000001110001002400000014048
:1007B00000080140000C01400010014000140140FD
:1007C0008068084000D0012070470AB1016170477D
:1007D0000904FBE7014880687047000024000020FE
:1007E000024881680278114481607047240000202B
:1007F000074810B5016841F010010160032000F0C6
:10080000A7F80F2000F006F800F050F8002010BD07
:100810000020024030B505461F4887B0C16941F04D
:100820000401C161C06906A900F00400009001A89C
:1008300000F036F90498B0B100F052F940001749C1
:10084000174AB0FBF1F11748491E0260416040F2BF
:10085000E7320021C0E903218160816100F008FBDB
:10086000040003D015E000F03BF9E8E70D4800F084
:100870002DFB04000DD11E2000F03CF8102D07D2F6
:10088000002229461E2000F043F80748056000E0DA
:10089000012407B0204630BD0010024040420F0046
:1008A00000080040CC000020280000200F4808B5B8
:1008B000816941F001018161816901F001010091CB
:1008C000C16941F08051C161C069002200F08050CF
:1008D00000900F21901E00F01BF80548416821F0A0
:1008E000E06141F00071416008BD0000001002406D
:1008F00000000140002809DB00F01F0201219140A7
:100900004009800000F1E020C0F8001170470000AD
:10091000F0B40E4B1B680C46C3F30223C3F107056A
:10092000042D00D90425191D072901D2002300E058
:10093000DB1E012606FA05F1491E214099409E4022
:10094000761E16403143F0BC00F069BF0CED00E0AC
:10095000064900F0070208684FF6FF03184040EA16
:100960000220034A10430860704700000CED00E0CD
:100970000000FA052DE9F0470F46050061D0434E0F
:10098000306800F00700B84209D2306820F0070054
:1009900038433060306800F00700B84251D1286811
:1009A0003B4C810712D5400703D5606840F4E060F6
:1009B00060602878000703D5606840F4605060608C
:1009C0006068A96820F0F000084360602878C007DC
:1009D00028D06868012810D02168022810D0890723
:1009E00000292EDA616821F0030101436160FFF7FD
:1009F000F1FE804641F288390DE021688903EFE776
:100A00008901EDE7FFF7E6FEA0EB0801494502D9B1
:100A10000320BDE8F0876068696800F00C00B0EB67
:100A2000810FEFD1306800F00700B8420BD9306871
:100A300020F0070038433060306800F00700B8420B
:100A400001D00120E5E72878400705D56068E9680E
:100A500020F4E060084360602878000706D56068ED
:100A6000296920F4605040EAC100606000F048F855
:100A70006168084AC1F30311515CC8400649086027
:100A800006480068FFF7C6FE0020C2E700200240CB
:100A9000001002409631000830000020280000209D
:100AA0000F2202600C4A536803F00303436053684B
:100AB00003F0F0038360536803F4E063C36052689B
:100AC0004FF4E06303EAD20202610448006800F0D8
:100AD000070008607047000000100240002002403C
:100AE0000448054900684968044AC1F30221515C81
:100AF000C84070473000002000100240A6310008B6
:100B00000E4A51680E4801F00C03042B11D0082B3B
:100B10000FD10C48C1F38343C903C05C0AD55168A7
:100B2000084AC1F34041921E515C054A5043B0FB54
:100B3000F1F070470449484370470000001002403C
:100B400000127A008631000800093D002DE9F84FB7
:100B5000040070D02078C04DC00749D06868C0F349
:100B60008100012807D06868C0F38100022809D1FC
:100B70006868C00306D52868800339D560680028F6
:100B8000E7D035E06068B0F5803F0BD010B1B0F52C
:100B9000A02F11D0286820F480302860286820F425
:100BA000802002E0286840F480302860606890B1BE
:100BB000FFF710FE06460AE0286840F4802028600F
:100BC000F0E700BFFFF706FE801B642873D8286893
:100BD0008003F7D50CE0FFF7FDFD064605E000BFFA
:100BE000FFF7F8FD801B6428F0D828688003F7D44D
:100BF00020789A4E80074FF001094FF0000839D550
:100C0000686810F00C0F07D06868C0F381000228F4
:100C100009D16868C00306D42868800714D5206904
:100C2000012808D110E02069B0B1C6F80090FFF7A4
:100C3000D1FD074605E00AE1FFF7CCFDC01B022805
:100C4000C4D828688007F7D52868616920F0F800C3
:100C500040EAC10028600DE0C6F80080FFF7BAFD49
:100C6000074604E0FFF7B6FDC01B022823D828681A
:100C70008007F7D4207800072CD57948A169D9B12D
:100C8000C0F80090FFF7A6FD074604E0FFF7A2FDBD
:100C9000C01B02280FD8686A8007F7D571484FF447
:100CA000FA510068B0FBF1F0009000BF0098411EBF
:100CB0000091FAD20EE080E0C0F80080FFF78AFDD4
:100CC000074604E0FFF786FDC01B022875D8686A56
:100CD0008007F7D42078400760D5E8690027C00076
:100CE00008D4E86940F08050E861E869012700F025
:100CF000805000905C480168C90513D401688346A0
:100D000041F480710160FFF765FD824606E000BF97
:100D1000FFF760FDA0EB0A0064284ED8DBF8000066
:100D2000C005F5D5E06801280AD008B1052813D020
:100D3000286A20F001002862286A20F0040002E0FE
:100D4000286A40F001002862E06841F2883B98B1CF
:100D5000FFF740FD82460BE0286A40F0040028625D
:100D6000EEE700BFFFF736FDA0EB0A0159455AD860
:100D7000286A8007F6D50CE0FFF72CFD824605E0D7
:100D8000FFF728FDA0EB0A0159454CD8286A8007D7
:100D9000F6D41FB1E86920F08050E861E06988B3BB
:100DA0006968C1F38101022944D00228C6F8608035
:100DB00004D0FFF70FFD044638E034E0FFF70AFDEA
:100DC000074604E0FFF706FDC01B02282BD8286861
:100DD0008001F7D4206AB0F5803F05D16868A1682A
:100DE00020F4003008436860D4E9080108436968CA
:100DF00021F4741108436860C6F86090FFF7EAFCBC
:100E0000044606E025E000BFFFF7E4FC001B0228D3
:100E100009D828688001F7D51BE000BFFFF7DAFC8E
:100E2000001B022802D90320BDE8F88F2868800142
:100E3000F4D40EE00128F7D06868226A00F480310B
:100E4000914204D1616A00F47010884201D00120FF
:100E5000EAE70020E8E700000010024000004242FC
:100E6000800442423000002000700040704770470C
:100E700010B5040003D094F83D0010B107E0012044
:100E800010BD002084F83C00204600F01EF802202F
:100E900084F83D00211D206800F084FC012084F8C6
:100EA000460084F83E0084F83F0084F8400084F84F
:100EB000410084F8420084F8430084F8440084F838
:100EC000450084F83D00002010BD704790F83D10AB
:100ED000012901D001207047022180F83D100168EE
:100EE000CA6842F00102CA6000680B49884208D013
:100EF000B0F1804F05D00949884202D008498842A4
:100F000004D1816801F00701062903D0016841F08E
:100F10000101016000207047002C014000040040E6
:100F20000008004070472DE9F04104460068C6689B
:100F300005694FF00007A90713D5B10711D5F91EB0
:100F4000016101202077206880698007204602D057
:100F5000FFF7E8FF04E000F07EF8204600F07CF8A0
:100F60002777680716D5700714D521686FF004003D
:100F70000861022020772068806910F4407F2046B5
:100F800002D0FFF7CFFF04E000F065F8204600F044
:100F900063F82777280715D5300713D521686FF038
:100FA00008000861042020772068C0698007204677
:100FB00002D0FFF7B7FF04E000F04DF8204600F044
:100FC0004BF82777E80616D5F00614D521686FF0A0
:100FD00010000861082020772068C06910F4407F65
:100FE000204602D0FFF79EFF04E000F034F82046D0
:100FF00000F032F82777E80708D0F00706D021681C
:101000006FF001000861204600F028F8280608D596
:10101000300606D521686FF0800008612046FFF792
:1010200025FF680608D5700606D521686FF04000D8
:101030000861204600F01CF8A8060AD5B00608D5BD
:1010400021686FF0200008612046BDE8F041FFF7FD
:101050000EBFBDE8F081704770470000006803498B
:10106000884201D1FFF7BCBB704700000008004078
:101070007047FEE71CB5094A0021094800F02AFC28
:10108000084900234FF4807248601820CDE9000120
:1010900005A1084801F056FE1CBD000060310008A3
:1010A00005170008000000204D656E755461736BD4
:1010B00000000000BD1100082DE9F04385B00024B8
:1010C00037480094019402940394816941F010011F
:1010D0008161816901F010010491816941F0200171
:1010E0008161816901F020010491816941F0080169
:1010F0008161816901F008010491816941F0040175
:1011000081618069DFF89C8000F004004FF4005595
:101110000490002229464046FFF757FBDFF88890ED
:101120004FF44077002239464846FFF74EFB0095C2
:10113000022601250396CDE9015469464046FFF792
:101140004FFA280300901948CDE901056946484641
:10115000FFF746FA280200901548CDE901056946D7
:101160001448FFF73DFA01AA1120009782E85100C8
:1011700069464846FFF734FA002205211720FFF799
:10118000C7FB1720FFF7B6FB002205212820FFF739
:10119000BFFB2820FFF7AEFB05B0BDE8F0830000E1
:1011A0000010024000100140000C0140000011102E
:1011B0000000211000080140FEE700001F4D08B5A7
:1011C00000242868A04630B900220121052001F042
:1011D0003BFB286020B11A4F01263E70414629E0B2
:1011E000502080F31188BFF34F8FBFF36F8FFEE75E
:1011F00064226946286801F0CFFC0128F8D19DF8E7
:10120000000001280DD00228F2D12046FFF7B0F9E6
:101210002046FFF76BF90146204600F039FA3E7090
:10122000E6E7641CE4B2052C00D300242046FFF757
:101230005DF90146204600F02BFAD9E7C8000020EE
:101240001C000020FEE7000010B50021074C0A46F4
:10125000002004EBC1131A54401CC0B28028FAD3FA
:10126000491CC9B20829F3D310BD0000E8190020B9
:10127000F0B50B4424E0044685181DE07F2C19D8F6
:10128000002917DB3F2915DCCE1701EB56764FEA14
:10129000E60C0D4F26F0070607EBCC172744A1EB11
:1012A000060E97F800C0012606FA0EF62CEA060C88
:1012B00087F800C0641C24B2A542DFDC491C09B2D7
:1012C0008B42D8DCF0BD0000E819002010B50020EA
:1012D0004FF47A720021491C9142FCD3401C904289
:1012E000F8D3012000F09AF9BDE81040012000F089
:1012F0009DB970B500240646802525FA04F03040DB
:1013000000D0012000F092F9012000F087F90020C0
:1013100000F084F9641CE4B2082CEED3012000F044
:101320007DF9BDE87040002000F078B910B50120CB
:1013300000F07CF9012000F071F9002000F076F94E
:10134000BDE81040002000F069B910B5002000F0A1
:101350006DF9012000F062F9BDE81040012000F0B5
:1013600065B910B5FFF7B2FFAE2000F067F9D520E0
:1013700000F064F9802000F061F9A82000F05EF927
:101380003F2000F05BF9D32000F058F9002000F076
:1013900055F9402000F052F9A12000F04FF9C82083
:1013A00000F04CF9DA2000F049F9122000F046F97B
:1013B000812000F043F9CF2000F040F9D92000F05F
:1013C0003DF9F12000F03AF9DB2000F037F9302048
:1013D00000F034F9A42000F031F9A62000F02EF935
:1013E0008D2000F02BF9142000F028F9AF2000F038
:1013F00025F9FFF729FFBDE8104000F0FBB810B554
:101400000C4640F0B00000F019F9102040EA14102A
:1014100000F014F904F00F00BDE8104000F00EB920
:1014200008B5082B0DD0062B0AD10A4B02EB42025D
:1014300003EB4202C03A00920823062200F00EF8A5
:1014400008BD054B03EB0212A2F5007210230092B7
:101450000822F3E79E370008AE3100082DE9F04F6F
:101460001F4616460D4682460024FFF701FF7F1EE9
:10147000F81707EB50700121DFF898B001EBE00797
:1014800043E000203DE000BF0AEB00037F2B36D88D
:10149000E91705EB5171CA1021F00701691A002DF7
:1014A00003DA521E083112B209B202EB0409B9F193
:1014B000070F0ED8099A04FB06F802440BEBC91E6D
:1014C00018F802201EF803C08A404CEA020C0EF8FD
:1014D00003C009F10102072A11D80BEBC91202EB74
:1014E0000308099A04FB06FC024498F880301CF8B3
:1014F0000220C1F10801CA40134388F88030401C23
:10150000C0B2B042C0D3641CE4B2A742B9DCBDE8AB
:10151000F08F0000E81900202DE9FF4F002583B06F
:101520009B4690462C46AA46DFF8C09056E010062F
:101530008DF8042005F101050DD40398ADB22044C7
:101540008DF805A000B25B460499FFF769FF04EB34
:101550000B0084B242E0A8B218F80010002941D074
:10156000401C8DF8051085B28DF806A0002606E017
:10157000384601A9FEF7E8FE68B1761CB6B2C6EBA4
:10158000C60000EB800101EB0900074618A1FEF739
:10159000DBFE0028ECD1BBF1080F03D0BBF1060F36
:1015A0001CD111E0C6EBC60000EB800101EB090085
:1015B000C01C009003981023204400B21A460499DE
:1015C000FFF74CFF103408E003980623204400B2D4
:1015D0003F220499FFF724FFA41DA4B218F80520A8
:1015E000002AA4D107B0BDE8F08F0000D839000868
:1015F0000000000070B5084D002400212046FFF7D0
:10160000FEFE05EBC410802100F029F8641CE4B252
:10161000082CF2D370BD0000E819002002464FF4F8
:1016200080710148FFF7D1B8000C014002464FF429
:1016300000710148FFF7C9B8000C014010B504461D
:10164000FFF774FE7820FFF754FE0020FFF751FEED
:101650002046FFF74EFEBDE81040FFF776BE70B59E
:101660000D460646FFF762FE7820FFF742FE402057
:10167000FFF73FFE002404E0305DFFF73AFE641CF4
:10168000E4B2AC42F8D3BDE87040FFF75EBE0000A4
:101690002DE9F0470F468246FFF7D6FD00210823CB
:1016A00013A20846FFF738FF0024DFF84C8010260D
:1016B0003819C5B2052D17D206EB041155458946D8
:1016C0004FF0080301D10DA200E00DA20020FFF7AA
:1016D00023FF58F82520494608231020FFF71CFF58
:1016E000641CE4B2032CE3D3BDE8F047FFF782BFEC
:1016F0004D656E7500000000B40000203E00000043
:101700002000000000224FF400510348FFF75DF86D
:10171000012000F0A3F8FBE70010014010B54FF0E6
:10172000E020006901F066FB012803D0BDE810400D
:1017300001F074B810BD30B58FB028216846FEF7AF
:10174000DCFD14210AA8FEF7D8FD01210804CDE92B
:1017500000100024029402250491CDE907504FF4B3
:10176000E01009906846FFF7F1F908B172B6FEE79C
:101770000F20CDE90A054FF48060CDE90C4002212D
:101780000AA80E94FFF7F6F8002801D072B6FEE71B
:101790000FB030BD704700000148FFF7C4BB000028
:1017A000CC000020F0B50268194B1A4C1A4D4FF0CE
:1017B0008047984205D0B84203D0A04201D0A84249
:1017C00003D122F070064A683243984205D0B842ED
:1017D00003D0A04201D0A84203D122F44074CA68C9
:1017E00022434C6922F08002224302608A68C2626E
:1017F0000A688262984201D109690163012141614D
:101800000169C90703D0016921F001010161F0BD3F
:10181000002C01400004004000080040FEE70907DA
:10182000090E002804DB00F1E02080F80014704766
:1018300000F00F0000F1E02080F8141D7047FEF763
:10184000D7FFFFF778FFFFF737FCFFF78AFD00F0BF
:1018500013F8FFF70FFC00F021F8FEE710B5EFF3E7
:10186000058111B16FF0050403E0002408B100F018
:101870000FFE204610BD0000EFF3058010B16FF0A1
:10188000050070470448016811B14FF0FF30704700
:1018900001210160002070478400002010B5EFF3A3
:1018A000058010B16FF0050010BD084801680129DE
:1018B00002D04FF0FF3010BD054A002182F8141D00
:1018C0000221016000F08AFE002010BD840000208B
:1018D0000BE000E02DE9FF414FEA01034FF0000566
:1018E000EFF30581039549BB40B3802718210024FD
:1018F0004AB3166806B1344696691EB13146761E63
:10190000382E02D21679F60703D0002004B0BDE8C5
:10191000F081566906B1B708D2F808C0BCF1000FD3
:101920000DD0D5685C2D18D312693AB136B18DE867
:1019300006103A46214601F032FA03900DE0D668CF
:101940005EB912694AB903AACDE90012BAB22146BA
:1019500001F0F8F9012800D003950398D6E70000BC
:101960002DE9F041134C0F460546E6682068001D3E
:1019700000F05AFC681C07D137B12168BDE8F0417E
:101980000D48091D00F0A0BC20683544B5424560F3
:10199000216805D2A06BBDE8F041091D00F07CBCB8
:1019A000606B091D00F078FCA06A854200D2A56238
:1019B000BDE8F08134000020040600202DE9F0414C
:1019C000054600F08DFC2D4CA068401CA0602068EE
:1019D0002B4F10B1606930B32BE02560A06801285F
:1019E00027D1002606EB860007EB800000F046FCBE
:1019F000761C382EF6D3234800F040FC21481430E2
:101A000000F03CFC1F48283000F038FC1D483C30FA
:101A100000F034FC1B48503000F030FC1948606383
:101A20001430A06305E02068E96AC06A884200D8E3
:101A30002560606A401C60626864E86A21698842C7
:101A400000D9206100EB800007EB8000291D00F029
:101A50003BFC00F065FC606900280CD02068E96A56
:101A6000C06A884207D208494FF080500860BFF32F
:101A70004F8FBFF36F8FBDE8F0810000340000206E
:101A800054010020B405002004ED00E038B500F05A
:101A900027FC104C2068C8B90F4800F0EFFB0E4837
:101AA000143000F0EBFB0C48E060143020610A4B6E
:101AB0000020F03B009003F1500210210A2000F0BA
:101AC000E4FE206010B105A100F0ACFCBDE8384098
:101AD00000F026BC7000002008070020546D7251F1
:101AE0000000000030B4026C0B46002A0BD0C16825
:101AF0001144C1608468A14201D30168C16030BC57
:101B00001846FEF7ADBB30BC70472DE9F041856B40
:101B1000174604460026026C82B1C7B1E068FEF7A2
:101B20009FFBE168206C091AE1602268914202D2B1
:101B3000A168081AE060022F16D017E02068A8B943
:101B4000A06801F0CFF906460020A0600EE06068B2
:101B5000FEF786FB216C606808446060A1688842DB
:101B600004D32068606001E005B16D1E6D1CA563A3
:101B70003046BDE8F08110B5044690F8590058B1E0
:101B800001280CD002280FD0502080F31188BFF319
:101B90004F8FBFF36F8FFEE7206B00F0D5FB204621
:101BA000BDE8104000F0D0BB10BD000010484FF45D
:101BB0004061420706D0C01D0D4920F00700411AC0
:101BC000C1F540610B4A00230144C2E90003083912
:101BD000183A21F0070111604B600B600B1AC0E945
:101BE000001393604FF00040536050617047000055
:101BF000E80D0020A0000020144E154CA6F29C47D2
:101C00004FF08058DFF84C9012E000BF00F068FB06
:101C1000F068C568281D00F007FBA068401EA060A2
:101C20006068401E606000F07BFB2846FFF7A3FF62
:101C300060680028EAD138680128F9D9C9F800801D
:101C4000BFF34F8FBFF36F8FF2E70000F005002066
:101C50003400002004ED00E070B51D46049C51B135
:101C6000C4F80020C4E90F010121204600F040FE25
:101C700084F84C5070BD2460F4E700002DE9F05F5B
:101C80008846DDE90B941546834691009A460A9EE4
:101C9000A522206BFEF729FB6FF00301206B01EBFF
:101CA0008501084420F00707780707D0502080F30B
:101CB0001188BFF34F8FBFF36F8FFEE70025B8F198
:101CC000000F0FD05FF00000221818F8001082F803
:101CD000341018F8001011B1401C1028F4D384F807
:101CE000435001E084F83450382E00D33726E662A2
:101CF000C4E91365201D00F0CCFA04F1180000F0CF
:101D0000C8FA2461C6F138006462A061656584F890
:101D1000585052465946384600F074FA2060B9F1DE
:101D2000000F01D0C9F80040BDE8F09F30B511495F
:101D300000E011460A688242FBD34B685C1884427B
:101D400003D1406818444860084643681C18944210
:101D500009D1084C183C2468A24209D052681A44A0
:101D600042600A6812680260814200D0086030BD9B
:101D70000460F9E7A000002070B5002441600B4D1D
:101D80000061914206D8D11A8269914206D2011DA2
:101D9000286907E09A4203D2994201D3012403E063
:101DA000011DE86800F078FA204670BD7000002040
:101DB00010B5044600F094FAA06B28B15FF000045F
:101DC00000F0AEFA204610BD0124F9E730B589B025
:101DD0003C4D6EE00498002806DADDE90601059A1C
:101DE00090470498002864DB069C606910B1201DB0
:101DF00000F01AFA03A800F0D7F8024604980A285F
:101E000057D2DFE800F00505052D334A05052D33CF
:101E100094F8280040F0010084F828000599A06992
:101E2000059B01442046FFF7A7FF68B3216A2046BF
:101E3000884794F8280040073BD50020009005987B
:101E4000A169002342181946204601F055F9D8B976
:101E5000502080F31188BFF34F8FBFF36F8FFEE7E1
:101E600014F8280F20F00100207022E094F82800D8
:101E700040F0010084F828000598A06128B181187D
:101E800013462046FFF778FF13E0502080F31188B7
:101E9000BFF34F8FBFF36F8FFEE794F828008107E1
:101EA00003D4204600F050FA03E020F0010084F84B
:101EB0002800002204A9286800F06EFE002889D1BD
:101EC00009B030BD700000202DE9FC410F460546E9
:101ED00000F016FC01A800F067F80446019818B15C
:101EE00001F078F8BDE8FC81254EAFB1306900689B
:101EF000D0B30027291B3A46306800F0A7FA01F05A
:101F000069F80028EED11F494FF080500860BFF3F8
:101F10004F8FBFF36F8FE5E7A542EBD801F05AF87A
:101F2000F0682746C068C468201D00F07DF994F869
:101F30002800410719D5A0692B4641193A46204689
:101F4000FFF71AFFA8B100200346014600902A4679
:101F5000204601F0D1F860B9502080F31188BFF31A
:101F60004F8FBFF36F8FFEE707E020F0010084F88A
:101F70002800216A20468847B4E70127BAE7000015
:101F80007000002004ED00E00648416B096829B1AB
:101F9000416BC968C9684968816270474FF0FF3179
:101FA000FAE700003400002070B5054600F030FF6D
:101FB000064E0446B068844203D200F009F80120BE
:101FC00000E0002028602046B46070BD7000002052
:101FD000F8B5194D20E0C068C4680668201D00F0FF
:101FE00023F9216A2046884794F82800400713D532
:101FF000A0693044B04206D924616060211DE868C0
:1020000000F04AF908E000200346014600903246FD
:10201000204601F071F838B1E86801680029DAD18A
:102020002969C5E90310F8BD502080F31188BFF37A
:102030004F8FBFF36F8FFEE77000002008484068A5
:10204000401C4FF0500080F3118804D0BFF34F8F35
:10205000BFF36F8FFEE7BFF34F8FBFF36F8FFEE7C6
:10206000A8000020002150B10A4B42699A420FD1CA
:10207000806AA3F1280290420AD040B108E05020C3
:1020800080F31188BFF34F8FBFF36F8FFEE70121FD
:102090000846704704060020074CE068016841B11B
:1020A000C0680021D0F80000FFF70EFFFFF78EFE9A
:1020B000F3E701210020F7E7700000202DE9F0414F
:1020C000044600F00DF994F9455004F1240609E0A6
:1020D000606A48B1304600F045FF08B100F006FAEA
:1020E0006D1E6DB2002DF3DC4FF0FF3684F84560B5
:1020F00000F016F900F0F4F894F9445004F11007D8
:1021000009E0206948B1384600F02CFF08B100F022
:10211000EDF96D1E6DB2002DF3DC84F84460BDE86E
:10212000F04100F0FDB800002DE9F0410546002720
:1021300000F0E6FA324E306808B9FFF737FD7069F3
:1021400005424ED1C5B3083568070ED005F007002B
:10215000C0F108000544680707D0502080F31188BB
:10216000BFF34F8FBFF36F8FFEE72DB370688542CB
:1021700037D82348183001460C6801E020460C4649
:102180006168A94202D221680029F7D131688C42E6
:1021900027D007682168016060680837411B102953
:1021A0000FD96019420708D0502080F31188BFF37F
:1021B0004F8FBFF36F8FFEE713E041606560FFF75D
:1021C000B5FD61687068401A7060B268904200D2D4
:1021D000B060706901430020C4E90001F068401C50
:1021E000F06000F0F7FE780707D0502080F31188E8
:1021F000BFF34F8FBFF36F8FFEE73846BDE8F08126
:102200008800002010B5031F4FF080741C601B1F56
:1022100021F001011960191F024B0B60143940387D
:102220000A6010BD3D200008D0E9013201699A60C2
:10223000D0E901235A604A68824201D182684A602B
:10224000002202610868401E0860086870470000AC
:10225000034B036003F15C0008608020106070474E
:1022600030070020044B036003F15C0008604FF46A
:1022700080701060704700008C09002000F1080198
:102280004FF0FF32C0E90112C1600161002101601D
:10229000704700210161704730B50B685A1C02D0AD
:1022A00000F1080202E0026904E022465468256851
:1022B0009D42FAD953684B6099608A605160086109
:1022C0000168491C016030BD42684A6093688B60B8
:1022D00093685960916008610168491C016070470A
:1022E000502080F31188BFF34F8FBFF36F8F0A49DF
:1022F0004868401C486001280CD10848006810F06C
:10230000FF0F07D0502080F31188BFF34F8FBFF32A
:102310006F8FFEE770470000A800002004ED00E08A
:102320000849486828B1401E486001D180F31188EF
:102330007047502080F31188BFF34F8FBFF36F8F2A
:10234000FEE70000A800002070B500282AD0164D36
:10235000A0F1080460686969084207D1502080F341
:102360001188BFF34F8FBFF36F8FFEE722683AB13A
:10237000502080F31188BFF34F8FBFF36F8FFEE7BC
:102380008843606000F0BCF9606869680844686070
:102390002046FFF7CBFC2869401C2861BDE870404F
:1023A00000F018BE70BD0000880000204FF0E02053
:1023B00000210161816105494FF47A720968B1FB1E
:1023C000F2F1491E41610721016170473000002090
:1023D00010B5FDF721FF114910280ED300F1E020C0
:1023E00090F8F0030A78904207D2502080F31188C9
:1023F000BFF34F8FBFF36F8FFEE70948006889680E
:1024000000F4E060884207D9502080F31188BFF3C0
:102410004F8FBFF36F8FFEE710BD0000A8000020B4
:102420000CED00E010B5084B002200BF53F832401D
:102430001CB1521C082AF9D310BD43F8321003EB2B
:10244000C201486010BD00001401002070B515469F
:102450000E460446FFF744FF94F944100020491C3F
:1024600001D184F8440094F94510491C01D184F845
:102470004500FFF755FFA06B28B92A46314604F105
:10248000240000F051F82046BDE87040FFF716BE6A
:1024900010B5020014D00F48006B38B1502080F303
:1024A0001188BFF34F8FBFF36F8FFEE700F028F95D
:1024B00000211046FFF754FA00F08CFD002807D1E8
:1024C00005494FF080500860BFF34F8FBFF36F8F07
:1024D00010BD00003400002004ED00E002490A6A4B
:1024E0000260C96841607047340000200149012042
:1024F000C86170473400002010B50C4650B109493E
:1025000009681831FFF7C8FE2046BDE810400121D8
:10251000FFF726BA502080F31188BFF34F8FBFF327
:102520006F8FFEE73400002070B514460D4668B189
:102530000A4909681831FFF7C7FE0CB14FF0FF35A3
:1025400021462846BDE87040FFF70ABA502080F3C4
:102550001188BFF34F8FBFF36F8FFEE73400002069
:1025600070B504002AD01A4D286884422ED0FFF797
:10257000B7FE2046FFF776FDE0B1201DFFF754FEC1
:10258000E06A2969884200D92861124900EB80007D
:1025900001EB8000211DFFF797FEE06A2968C96AF8
:1025A000884207D30C494FF080500860BFF34F8F2B
:1025B000BFF36F8FBDE87040FFF7B2BE502080F3CD
:1025C0001188BFF34F8FBFF36F8FFEE770BD000020
:1025D000340000205401002004ED00E030B587B045
:1025E0000024039405AA04A903A80494FFF730FE6D
:1025F000DDE903010094CDE90110002315A117487E
:10260000059A00F0CCFB164D0028E8621FD000F0C0
:1026100043FD012809D0401C19D1502080F31188B6
:10262000BFF34F8FBFF36F8FFEE7502080F3118809
:10263000BFF34F8FBFF36F8F4FF0FF30A8620120C1
:102640006861EC6007B0BDE8304000F093B807B0B7
:1026500030BD000049444C4500000000F91B000853
:102660003400002070B50446FFF73AFE214D04B94E
:102670002C68201DFFF7D8FDA06A18B104F11800DE
:10268000FFF7D2FD211D1C48FFF71EFE94F85800ED
:102690000026012801D184F85860FFF741FE6869DF
:1026A00028B1FFF71DFEFFF76FFCFFF739FE286822
:1026B000844213D1686990B1286B38B1502080F3FF
:1026C0001188BFF34F8FBFF36F8FFEE70B494FF0B9
:1026D00080500860BFF34F8FBFF36F8F70BD064807
:1026E0000068A968884201D12E6070BDBDE87040C5
:1026F00000F00EB8340000200406002004ED00E0D5
:102700000248016B491C016370470000340000203F
:10271000164810B5016B11B10121C16110BD002136
:10272000C1610169124A01E0B9B1491E01EB81039F
:1027300052F82330002BF7D001EB810302EB830228
:1027400002F1080453685B685360A34201D15B68DF
:102750005360DA680260016110BD502080F3118877
:10276000BFF34F8FBFF36F8FFEE7000034000020F0
:10277000540100201CB5264908780190FF200870FC
:1027800008788DF800009DF800009DF8002000F00A
:10279000F000904207D0502080F31188BFF34F8F94
:1027A000BFF36F8FFEE79DF800001A4C00F0500059
:1027B00020700720A06005E09DF8002052008DF8F1
:1027C0000020401E9DF800201206F5D4A0600328CA
:1027D00007D0502080F31188BFF34F8FBFF36F8F66
:1027E000FEE74FF44070A060019808700A48016845
:1027F00041F470010160016841F070410160FFF730
:10280000D5FD00206060FDF7D1FC00201CBD00005C
:1028100000E400E0A800002020ED00E010B550200A
:1028200080F31188BFF34F8FBFF36F8F00F0F6FA7C
:1028300018B104494FF080500860002080F31188DF
:1028400010BD000004ED00E0F8B517460E46050087
:1028500013D005FB06F05030FFF766FC04000AD0E9
:10286000002084F8460004F150023B4631462846D9
:102870000094FFF7F1F92046F8BD502080F311884D
:10288000BFF34F8FBFF36F8FFEE738B5049D18B1CC
:1028900053B1CAB181B120E0502080F31188BFF359
:1028A0004F8FBFF36F8FFEE7502080F31188BFF387
:1028B0004F8FBFF36F8FFEE7502080F31188BFF377
:1028C0004F8FBFF36F8FFEE739B1502080F311882F
:1028D000BFF34F8FBFF36F8FFEE750241C460123D9
:1028E00084F846302B460094FFF7B6F9204638BDF1
:1028F00070B50D46040025D0FFF7F2FCD4E90F2097
:10290000216802FB0011A1600021A16321686160C0
:102910000A46D4E90F01401E00FB0121E160214677
:102920004FF0FF3001F8440F487004F110008DB1F2
:10293000FFF7A4FC04F12400FFF7A0FCFFF7F0FC74
:10294000012070BD502080F31188BFF34F8FBFF37B
:102950006F8FFEE721690029F0D000F003FB00280B
:10296000ECD004494FF080500860BFF34F8FBFF3A5
:102970006F8FE3E704ED00E02DE9FF4782B01D46CD
:102980008A464FF00008040003D0BAF1000F08D0C7
:1029900011E0502080F31188BFF34F8FBFF36F8F8A
:1029A000FEE7206C38B1502080F31188BFF34F8FC1
:1029B000BFF36F8FFEE7022D0AD1E06B012807D02D
:1029C000502080F31188BFF34F8FBFF36F8FFEE766
:1029D00000F010FA3F4F4FF000094FF0805648B911
:1029E000049838B1502080F31188BFF34F8FBFF3A4
:1029F0006F8FFEE7FFF774FCA06BE16B884207D393
:102A0000022D05D00498D0B1B8F1000F1AD01EE005
:102A10002A4651462046FFF778F8616A19B104F159
:102A2000240000F09FFA20B13E60BFF34F8FBFF348
:102A30006F8FFFF775FC012006B0BDE8F087FFF748
:102A40006FFC22E06846FFF749FD4FF00108FFF7F1
:102A500067FCFFF755FEFFF743FC94F94400401C68
:102A600001D184F8449094F94500401C01D184F8C8
:102A70004590FFF755FC04A9684600F029F930B1EC
:102A80002046FFF71BFB00F0A5FA0020D4E7FFF774
:102A900027FCA06BE16B884213D1FFF741FC04F1E6
:102AA00010000499FFF728FD2046FFF707FB00F010
:102AB00091FA00289ED13E60BFF34F8FBFF36F8F16
:102AC00098E7FFF72DFC2046FFF7F8FA00F082FAAE
:102AD00090E7000004ED00E02DE9F0471F46904626
:102AE0008946040003D0B9F1000F08D011E050204E
:102AF00080F31188BFF34F8FBFF36F8FFEE7206C19
:102B000038B1502080F31188BFF34F8FBFF36F8F20
:102B1000FEE7022F0AD1E06B012807D0502080F396
:102B20001188BFF34F8FBFF36F8FFEE7FFF750FCA5
:102B30005020EFF3118680F31188BFF34F8FBFF35E
:102B40006F8FA06BE16B884206D3022F04D0002068
:102B500086F31188BDE8F08794F94550A06B3A469A
:102B600049462046FEF7D1FF681C04D06D1C84F84E
:102B700045500120ECE7606A0028FAD004F12400F7
:102B800000F0F0F90028F4D0B8F1000FF1D00121E5
:102B9000C8F80010EDE700002DE9F747002683B0E4
:102BA0008A46040003D0BAF1000F08D011E050208B
:102BB00080F31188BFF34F8FBFF36F8FFEE7206C58
:102BC00038B1502080F31188BFF34F8FBFF36F8F60
:102BD000FEE700F00FF9DFF8F4804FF000094FF046
:102BE000805748B9059838B1502080F31188BFF359
:102BF0004F8FBFF36F8FFEE7FFF772FBA56BC5B179
:102C000051462046FEF76EFF6D1EA563206950B148
:102C100004F1100000F0A6F928B1C8F80070BFF365
:102C20004F8FBFF36F8FFFF77BFB012006B0BDE82E
:102C3000F087059808B11EB106E0FFF771FB27E0A9
:102C40006846FFF74BFC0126FFF76AFBFFF758FDCC
:102C5000FFF746FB94F94400401C01D184F84490EE
:102C600094F94500401C01D184F84590FFF758FBCA
:102C700005A9684600F02CF8002820460AD0FFF786
:102C80001DFA00F0A7F92046FFF792F80028B3D00C
:102C90000020CBE7FFF78CF890B104F124000599F0
:102CA000FFF72AFC2046FFF709FA00F093F9002805
:102CB000A2D1C8F80070BFF34F8FBFF36F8F9BE7AF
:102CC0002046FFF7FBF900F085F995E704ED00E0F9
:102CD0002DE9F0410C46050011D0C4B1FFF700FB0F
:102CE000174BDA686E682068911B471C17D02F6855
:102CF0001B6A9F4219D0964217D8012410E0502039
:102D000080F31188BFF34F8FBFF36F8FFEE7502022
:102D100080F31188BFF34F8FBFF36F8FFEE700245E
:102D2000FFF7FEFA2046BDE8F081884205D9401A37
:102D300020602846FFF7D2FBF1E700202060DCE7A7
:102D4000340000202DE9FF5F8346DDE90E879946B8
:102D500016468A469000FFF7E7F905001CD05C2074
:102D6000FFF7E2F9040014D00020256384F859002D
:102D7000CDE90240CDE900874B46324651465846E0
:102D8000FEF77CFF2046FEF719FE012004B0BDE8E7
:102D9000F09F2846FFF7D8FA4FF0FF30F6E7F0B57E
:102DA00085B0DDE90B640A9DA6B1DCB15C27009714
:102DB0002663022684F85960002604AFCDE9024656
:102DC000CDE90057FEF75AFF2046FEF7F7FD0498BD
:102DD00005B0F0BD502080F31188BFF34F8FBFF3D3
:102DE0006F8FFEE7502080F31188BFF34F8FBFF342
:102DF0006F8FFEE70548416919B1006B18B10020DB
:102E00007047012070470220704700003400002006
:102E10000148C06870470000340000202DE9F041EF
:102E20002E4C0027206B28B1A069401CA0613846B9
:102E3000BDE8F081E668761CE66013D1606B00683F
:102E400038B1502080F31188BFF34F8FBFF36F8FDD
:102E5000FEE7606BA16B6163A063206A401C206287
:102E6000FFF792F8A06ADFF87880864209D3606B9A
:102E70000068A0B1606BC068C5686868864211D2FE
:102E8000A0622068C06A00EB800158F82100012888
:102E900000D90127E0690028C9D00127C7E74FF012
:102EA000FF30EDE7281DFFF7BFF9A86A18B105F15B
:102EB0001800FFF7B9F9E86A2169884200D9206152
:102EC00000EB800108EB8100291DFFF7FDF9E86A9E
:102ED0002168C96A8842CAD30127C8E734000020A4
:102EE0005401002070B504004FF0000133D01B4D99
:102EF0002868844207D0502080F31188BFF34F8F99
:102F0000BFF36F8FFEE7206D38B1401E2065E36C84
:102F1000E26A9A421FD040B11DE0502080F3118830
:102F2000BFF34F8FBFF36F8FFEE7201DFFF77CF9D4
:102F3000E06CE062C0F13800A061E06A2969884273
:102F400000D92861064900EB800001EB8000211DBB
:102F5000FFF7BAF90121084670BD000034000020D7
:102F60005401002070B5C068C46854B104F1180061
:102F70000646FFF759F9144D286B50B131461348F6
:102F800015E0502080F31188BFF34F8FBFF36F8F90
:102F9000FEE7201DFFF748F9E06A2969884200D959
:102FA00028610B4900EB800001EB8000211DFFF739
:102FB0008BF9E06A2968C96A884202D90120E86170
:102FC00070BD002070BD000034000020DC05002032
:102FD000540100202DE9F0472C4D00242746286B92
:102FE00038B1FFF77DF9286B401E2863286B40B18C
:102FF00046E0502080F31188BFF34F8FBFF36F8FEF
:10300000FEE7A968224E0120D1B3A6F5916980465A
:103010003068E0B1F068C46804F11800FFF704F903
:10302000201DFFF701F9E06A2969884200D928616B
:1030300000EB800109EB8100211DFFF745F9E06AF3
:103040002968C96A8842E3D3C5F81C80E0E70CB15F
:10305000FEF79AFFAC694CB14FEA0806FFF7DEFEB7
:1030600000B1EE61641EF9D10020A861E86938B1B1
:103070000849012738070860BFF34F8FBFF36F8FF0
:10308000FFF74EF93846BDE8F08700003400002015
:10309000DC05002004ED00E010B586B0FEF7F6FC7C
:1030A000114C2068B8B100200390049005AA04A92F
:1030B00003A8FFF7D7F8DDE9032102208DE8070018
:1030C00000230AA10B48059AFFF769FE606010B162
:1030D00006B0012010BD502080F31188BFF34F8F40
:1030E000BFF36F8FFEE7000070000020546D722068
:1030F00053766300992000082DE9FF411E461346D0
:1031000002000A9D4FF0000016D0144C2768002FD3
:103110000FD0CDE900130292062917DAFFF76AFEF5
:1031200002284FF000030FD0002269462068FFF705
:1031300023FC04B0BDE8F081502080F31188BFF378
:103140004F8FBFF36F8FFEE72A46EEE7002332462C
:1031500069463846FFF7C0FCEBE70000700000202E
:10316000D03A00080000000000000000000000004D
:103170000000000000020000180000000000000035
:1031800000000000010202030405060708090A0BFB
:103190000C0D0E0F101000000000000000000102D6
:1031A00003040607080900000000010203040000F0
:1031B000000000000000000000000000000000000F
:1031C00000F800000000000000333000000000168E
:1031D0000E00160E0000000000000000000040C0BD
:1031E0007840C0784000043F04043F0404000070AD
:1031F00088FC08300000001820FF211E0000F008A5
:10320000F000E018000000211C031E211E0000F049
:103210000888700000001E212324192721100000B7
:1032200000160E000000000000000000000000007A
:1032300000E018040200000000071820400000020F
:103240000418E00000000040201807000000404083
:1032500080F0804040000202010F010202000000E5
:1032600000F0000000000101011F01010100000049
:1032700000000000000000B070000000000000002E
:103280000000000000000001010101010101000037
:1032900000000000000000303000000000000000CE
:1032A000000080601804006018060100000000E0C3
:1032B00010080810E000000F102020100F00001070
:1032C00010F8000000000020203F202000000070C7
:1032D00008080888700000302824222130000030BF
:1032E0000888884830000018202020110E000000B7
:1032F000C02010F8000000070424243F240000F838
:103300000888880808000019212020110E0000E01C
:10331000108888180000000F112020110E000038BE
:103320000808C83808000000003F000000000070D6
:10333000880808887000001C222121221C0000E05F
:1033400010080810E0000000312222110F000000D8
:1033500000C0C0000000000000303000000000008D
:1033600000C0C0000000000080B07000000000003D
:103370008040201008000001020408102000404096
:1033800040404040400004040404040404000008D9
:10339000102040800000002010080402010000708E
:1033A00048080808F0000000003036010000C03076
:1033B000C828E810E0000718272423140B00000099
:1033C000C038E0000000203C23020227382008F823
:1033D000888888700000203F202020110E00C03017
:1033E000080808083800071820202010080008F8EE
:1033F00008080810E000203F202020100F0008F8E7
:103400008888E8081000203F20202320180008F8B2
:103410008888E8081000203F200003000000C0302A
:1034200008080838000007182020221E020008F8AB
:1034300008000008F808203F210101213F20000872
:1034400008F8080800000020203F202000000000AD
:103450000808F8080800C08080807F00000008F895
:1034600088C028180800203F20012638200008F8CE
:10347000080000000000203F20202020300008F835
:10348000F800F8F80800203F003F003F200008F84F
:1034900030C00008F808203F200007183F00E01067
:1034A00008080810E0000F10202020100F0008F876
:1034B00008080808F000203F210101010000E01089
:1034C00008080810E0000F18242438504F0008F8AE
:1034D000888888887000203F2000030C302000700E
:1034E0008808080838000038202121221C0018080C
:1034F00008F8080818000000203F2000000008F825
:1035000008000008F808001F202020201F0008786D
:10351000880000C83808000007380E010000F808CD
:1035200000F80008F800033C0700073C03000818F7
:1035300068808068180820302C03032C302008385D
:10354000C800C83808000000203F20000000100814
:103550000808C8380800203826212020180000005C
:1035600000FE020202000000007F40404000000C0C
:1035700030C000000000000000010638C00000025A
:103580000202FE000000004040407F0000000020DA
:1035900010080408102000000000000000000000D7
:1035A0000000000000008080808080808080000219
:1035B00004080000000000000000000000000000FF
:1035C0008080808000000019242222223F2008F8F9
:1035D000008080000000003F112020110E0000003C
:1035E000008080800000000E1120202011000000CB
:1035F00000808088F800000E112020103F2000007D
:10360000808080800000001F222222221300008080
:1036100080F0888888180020203F202000000000CB
:10362000808080808000006B94949493600008F800
:10363000008080800000203F210000203F2000808B
:103640009898000000000020203F2020000000008B
:1036500000809898000000C08080807F000008F8FB
:10366000000080808000203F24022D3020000008D0
:1036700008F8000000000020203F2020000080808B
:10368000808080808000203F20003F20003F00801D
:1036900080008080000000203F2100203F200000AB
:1036A000808080800000001F202020201F0080805C
:1036B00000808000000080FFA12020110E0000008B
:1036C000008080808000000E112020A0FF8080807C
:1036D00080008080800020203F2120000100000029
:1036E00080808080800000332424242419000080FE
:1036F00080E0808000000000001F2020000080800B
:10370000000000808000001F202020103F208080CB
:1037100080000080808000010E300806010080805B
:103720000080008080800F300C030C300F00008080
:103730008000808080000020312E0E3120008080AB
:1037400080000080808080818E70180601000080DB
:103750008080808080000021302C222130000000F9
:103760000000807C020200000000003F404000009A
:103770000000FF00000000000000FF000000000249
:10378000027C800000000040403F000000000080FC
:1037900040408000008000000000000101000000A7
:1037A000000000000000002F0000000007000700DC
:1037B00000147F147F1400242A7F2A120023130888
:1037C00064620036495522500000000700000000E6
:1037D0001C224100000041221C000014083E081475
:1037E0000008083E0808000000A060000008080863
:1037F0000808000060600000002010080402003E7D
:103800005149453E0000427F400000426151494617
:10381000002141454B31001814127F100027454507
:103820004539003C4A494930000171090503003619
:103830004949493600064949291E0000363600002C
:103840000000563600000008142241000014141431
:103850001414000041221408000201510906003E20
:103860004955592E007C1211127C007F4949493676
:10387000003E41414122007F4141221C007F4949D5
:103880004941007F09090901003E4149497A007F09
:103890000808087F0000417F4100002040413F01AF
:1038A000007F08142241007F40404040007F020C0E
:1038B000027F007F0408107F003E4141413E007FAF
:1038C00009090906003E4151215E007F0919294678
:1038D0000046494949310001017F0101003F404054
:1038E000403F001F2040201F003F4038403F006302
:1038F0001408146300070870080700615149454324
:1039000000007F41410000020408102000004141F6
:103910007F000004020102040040404040400000DB
:1039200001020400002054545478007F4844443875
:1039300000384444442000384444487F00385454FC
:10394000541800087E0901020018A4A4A47C007F7A
:10395000080404780000447D4000004080847D001D
:10396000007F102844000000417F4000007C0418C4
:103970000478007C0804047800384444443800FC8F
:10398000242424180018242418FC007C08040408AB
:1039900000485454542000043F444020003C404020
:1039A000207C001C2040201C003C4030403C004457
:1039B00028102844001CA0A0A07C004464544C445F
:1039C0000000087F41000000007F00000000417FF0
:1039D0000800000804081008A3AC00000000000064
:1039E0000000000000000000000000000058380047
:1039F0000000000000000000000000A1A300000083
:103A000000000000000000000000000000000000B6
:103A10001824241800000000000000000000C4E387
:103A200000008060F8074020180F08C80808281810
:103A300000010000FF00100C0340807F0001061809
:103A400000BAC3001010F01F10F000808282E292D2
:103A50008A868000402215081661000040807F00A1
:103A600000000000CAC000202020FE2020FF2020EF
:103A700020FF20202020000000007F4040474444D9
:103A800044474040400000BDE700000000FE929225
:103A900092FE929292FE0000000008080484621ECA
:103AA000010001FE020404080800000000FF0101FB
:103AB000013109090909897101010101FFFF8080B4
:103AC000808080809681808080808080FF000000E0
:103AD00064656661756C745461736B0047616D65F4
:103AE00000000000436C6F636B000000416C61726A
:103AF0006D0000004779726F0000000054656D7022
:103B000000000000243B000800000020CC00000062
:103B100028010008F03B0008CC0000207C230000B6
:103B20004401000800000000000000000000000048
:103B30000000000000000000000000000000000085
:103B40000000000000000000010000001000000064
:103B50000000000000127A000000000000000000D9
:103B60000000000000000000000000000000000055
:103B70000000000000000000000000000000000045
:103B80000000000000000000000000000000000035
:103B90000000000000000000000000000000000025
:103BA0000000000000000000000000000000000015
:103BB0000000000000000000000000000000000005
:103BC00000000000000000000000000000000000F5
:103BD000AAAAAAAA00000000E43A0008EC3A0008E9
:103BE000DC3A0008FC3A0008F43A00080000000043
:04000005080000ED02
:00000001FF
